S00C00004D4355532E73726563E0
S11300000C942A000C943C000C943C000C943C008E
S11300100C943C000C943C000C943C000C94100395
S11300200C943C000C943C000C943C000C94BE02D8
S11300300C943C000C943C000C943C000C943C004C
S11300400C943C000C943C000C943C000C943C003C
S11300500C943C0011241FBECFE5D8E0DEBFCDBF19
S113006020E0A0E6B0E001C01D92A637B207E1F798
S11300700E942B020C9451050C9400000E9407026C
S11300800E9460020E941F020E94250280E090E00C
S11300900E9476020E940F0108950E940D020E94A0
S11300A060020E9407020E9425028DE290E00E94F5
S11300B076020E940F0108950E945A020E940702CC
S11300C00E940D020E940F018CE390E00E947602D0
S11300D02FEF80E792E0215080409040E1F700C08C
S11300E0000008958AE590E00E9476020E940702CB
S11300F00E940D020E9413020E945A020E940901EA
S11301000895DF92EF92FF920F931F93CF93DF93A3
S113011080E090E00E9476020E9407020E940D0295
S11301200E9413020E945A020E9409012FEF84E3E5
S11301309CE0215080409040E1F700C000000E9404
S113014019020E941F020E9425020E9460020E945E
S11301500F01D12CE12CF12C00E0C0E010E0D1E043
S113016080916000909161000E94B002282F99272D
S11301709093610080936000213651F4C11104C052
S11301800E940702CD2FECCF0E941902C12FE8CFA5
S1130190223651F4011104C00E940D020D2FE0CF4C
S11301A00E941F02012FDCCF233651F4F11004C04A
S11301B00E941302FD2ED4CF0E942502F12ED0CF2F
S11301C0243651F4E11004C00E945A02ED2EC8CF27
S11301D00E946002E12EC4CF253651F4D11004C030
S11301E00E940901DD2EBCCF0E940F01D12EB8CF91
S11301F0203309F0B5CFDF91CF911F910F91FF907C
S1130200EF90DF90089541E063E080E00E941501E3
S1130210089541E063E080E00E948601089540E093
S113022063E080E00E94860108954423B9F14130DF
S113023009F06BC0813089F028F08230C9F0833036
S113024011F108952AB381E090E002C0880F991F4C
S11302506A95E2F7822B8ABB089527B381E090E088
S113026002C0880F991F6A95E2F7822B87BB089515
S113027024B381E090E002C0880F991F6A95E2F7E9
S1130280822B84BB089521B381E090E002C0880FE3
S1130290991F6A95E2F7822B81BB0895813091F012
S11302A028F08230D9F0833029F108952AB381E00F
S11302B090E002C0880F991F6A95E2F78095822327
S11302C08ABB089527B381E090E002C0880F991F8C
S11302D06A95E2F78095822387BB089524B381E071
S11302E090E002C0880F991F6A95E2F780958223F7
S11302F084BB089521B381E090E002C0880F991F68
S11303006A95E2F78095822381BB08954423B9F16D
S1130310413009F06BC0813089F028F08230C9F097
S1130320833011F108952BB381E090E002C0880F6F
S1130330991F6A95E2F7822B8BBB089528B381E05D
S113034090E002C0880F991F6A95E2F7822B88BB60
S1130350089525B381E090E002C0880F991F6A9543
S1130360E2F7822B85BB089522B381E090E002C0BE
S1130370880F991F6A95E2F7822B82BB089581301A
S113038091F028F08230D9F0833029F108952BB30D
S113039081E090E002C0880F991F6A95E2F780958A
S11303A082238BBB089528B381E090E002C0880FBC
S11303B0991F6A95E2F78095822388BB089525B337
S11303C081E090E002C0880F991F6A95E2F780955A
S11303D0822385BB089522B381E090E002C0880F98
S11303E0991F6A95E2F78095822382BB089541E0C4
S11303F062E082E00E94150141E067E082E00E9431
S1130400150141E063E083E00E941501089541E095
S113041062E082E00E948601089541E067E082E0A4
S11304200E948601089541E063E083E00E94860112
S1130430089540E062E082E00E948601089540E071
S113044067E082E00E948601089540E063E083E073
S11304500E94860108950E94F7010E9454020E949E
S113046099020E9466020E9403010E94B5028091D3
S113047060000E94B002813019F40E943E00F7CF60
S1130480823019F40E944D00F2CF833019F40E9497
S11304905C00EDCF843019F40E947200E8CF811122
S11304A0E6CF0E948100E3CF41E062E080E00E9459
S11304B01501089541E062E080E00E9486010895FC
S11304C040E062E080E00E948601089541E065E03A
S11304D083E00E9415010E945F030E9481036AE980
S11304E079E989EE90E40E946A030895882359F01B
S11304F08A3571F08D3289F08C33A1F46EE37AE0A1
S11305008FE091E413C06AE979E989EE90E40EC0C2
S113051060E070E080E291E409C06DEC7CEC88E07E
S113052091E404C06AE979E989EE90E40E946A03DF
S1130530089540E064E081E00E94150140E065E038
S113054081E00E94150141E066E081E00E9415010E
S113055040E067E081E00E94150183E48DB90895CD
S11305608FB9779BFECF8FB1089583B783BF89B7C7
S1130570816089BF8FB780688FBF08951F920F92E3
S11305800FB60F9211242F933F934F935F936F9362
S11305907F938F939F93AF93BF93EF93FF93809138
S11305A0650090916600A0916700B0916800019683
S11305B0A11DB11D8093650090936600A093670010
S11305C0B093680040916F00509170006091710089
S11305D07091720084179507A607B70781F480917C
S11305E0730082BF1092650010926600109267003B
S11305F010926800E0917400F09175000995FF91E4
S1130600EF91BF91AF919F918F917F916F915F9186
S11306104F913F912F910F900FBE0F901F901895FF
S11306201F920F920FB60F9211242F933F934F9363
S11306305F936F937F938F939F93AF93BF93EF9346
S1130640FF938091610090916200A0916300B0914A
S113065064000196A11DB11D809361009093620016
S1130660A0936300B09364004091690050916A00C4
S113067060916B0070916C0084179507A607B7070B
S113068069F410926100109262001092630010925B
S11306906400E0916D00F0916E000995FF91EF9177
S11306A0BF91AF919F918F917F916F915F914F9186
S11306B03F912F910F900FBE0F901F9018958FB5FB
S11306C082688FBD8EB58C618EBD86E491E097BD46
S11306D086BD089520E030E043EA53E40E94E40438
S11306E020E030E048EC52E40E94F20320E030E0E5
S11306F040E85FE30E9485030E9464047BBD6ABDF9
S113070008958EB584608EBD08955058BB27AA27DE
S11307100E949D030C94AA040E949C0438F00E9439
S1130720A30420F039F49F3F19F426F40C9499049F
S11307300EF4E095E7FB0C949304E92F0E94BB04AC
S113074058F3BA17620773078407950720F079F402
S1130750A6F50C94DD040EF4E0950B2EBA2FA02D13
S11307600B01B90190010C01CA01A0011124FF275A
S1130770591B99F0593F50F4503E68F11A16F04055
S1130780A22F232F342F4427585FF3CF4695379554
S11307902795A795F0405395C9F77EF41F16BA0B19
S11307A0620B730B840BBAF09150A1F0FF0FBB1FC7
S11307B0661F771F881FC2F70EC0BA0F621F731F10
S11307C0841F48F4879577956795B795F7959E3F6D
S11307D008F0B0CF9395880F08F09927EE0F9795FE
S11307E0879508950E9406040C94AA040E94A30409
S11307F058F00E949C0440F029F45F3F29F00C94C7
S1130800930451110C94DE040C9499040E94BB04CB
S113081068F39923B1F3552391F3951B550BBB272B
S1130820AA2762177307840738F09F5F5F4F220F70
S1130830331F441FAA1FA9F335D00E2E3AF0E0E867
S113084032D091505040E695001CCAF72BD0FE2FB1
S113085029D0660F771F881FBB1F26173707480745
S1130860AB07B0E809F0BB0B802DBF01FF279358FD
S11308705F4F3AF09E3F510578F00C9493040C942A
S1130880DE045F3FE4F3983ED4F38695779567954D
S1130890B795F7959F5FC9F7880F911D9695879532
S11308A097F90895E1E0660F771F881FBB1F621751
S11308B073078407BA0720F0621B730B840BBA0B0F
S11308C0EE1F88F7E09508950E94C30488F09F57AF
S11308D098F0B92F9927B751B0F0E1F0660F771F60
S11308E0881F991F1AF0BA95C9F714C0B13091F056
S11308F00E94DD04B1E008950C94DD04672F782F85
S11309008827B85F39F0B93FCCF38695779567951A
S1130910B395D9F73EF490958095709561957F4F86
S11309208F4F9F4F089597F99F6780E870E060E0CC
S113093008959FEF80EC089500240A941616170674
S113094018060906089500240A94121613061406BC
S113095005060895092E0394000C11F4882352F01F
S1130960BB0F40F4BF2B11F460FF04C06F5F7F4FD7
S11309708F4F9F4F089557FD9058440F551F59F0BE
S11309805F3F71F04795880F97FB991F61F09F3F78
S113099079F087950895121613061406551FF2CFA1
S11309A04695F1DF08C0161617061806991FF1CFF1
S11309B086957105610508940895E894BB27662718
S11309C07727CB0197F908950E94F7040C94AA04A1
S11309D00E949C0438F00E94A30420F0952311F097
S11309E00C9493040C94990411240C94DE040E9436
S11309F0BB0470F3959FC1F3950F50E0551F629FA0
S1130A00F001729FBB27F00DB11D639FAA27F00D63
S1130A10B11DAA1F649F6627B00DA11D661F829F8A
S1130A202227B00DA11D621F739FB00DA11D621F6F
S1130A30839FA00D611D221F749F3327A00D611D8C
S1130A40231F849F600D211D822F762F6A2F11246E
S1130A509F5750409AF0F1F088234AF0EE0FFF1FA1
S1130A60BB1F661F771F881F91505040A9F79E3FF8
S1130A70510580F00C9493040C94DE045F3FE4F37E
S1130A80983ED4F3869577956795B795F795E7954E
S1130A909F5FC1F7FE2B880F911D9695879597F957
S1090AA00895F894FFCF55
S9030000FC
