S00D00004D4355326D2E7372656393
S11300000C942A000C945B020C9447000C94470057
S11300100C9447000C9447000C9447000C94470040
S11300200C9447000C9447000C9447000C94470030
S11300300C9447000C9447000C9447000C94470020
S11300400C9447000C9447000C9447000C94470010
S11300500C94470011241FBECFE5D8E0DEBFCDBF0E
S113006012E0A0E6B0E0E6EFF9E002C005900D92E0
S1130070A834B107D9F722E0A8E4B2E001C01D9288
S1130080A235B207E1F70E9433020C94F9040C94F0
S113009000004423B9F1413009F06BC0813089F08C
S11300A028F08230C9F0833011F108952AB381E039
S11300B090E002C0880F991F6A95E2F7822B8ABBF1
S11300C0089527B381E090E002C0880F991F6A95D4
S11300D0E2F7822B87BB089524B381E090E002C04D
S11300E0880F991F6A95E2F7822B84BB089521B388
S11300F081E090E002C0880F991F6A95E2F7822B95
S113010081BB0895813091F028F08230D9F083309A
S113011029F108952AB381E090E002C0880F991F65
S11301206A95E2F7809582238ABB089527B381E01C
S113013090E002C0880F991F6A95E2F780958223A8
S113014087BB089524B381E090E002C0880F991F13
S11301506A95E2F78095822384BB089521B381E0F8
S113016090E002C0880F991F6A95E2F78095822378
S113017081BB08954423B9F1413009F06BC081304B
S113018089F028F08230C9F0833011F108952BB33F
S113019081E090E002C0880F991F6A95E2F7822BF4
S11301A08BBB089528B381E090E002C0880F991FAB
S11301B06A95E2F7822B88BB089525B381E090E02D
S11301C002C0880F991F6A95E2F7822B85BB0895B8
S11301D022B381E090E002C0880F991F6A95E2F78C
S11301E0822B82BB0895813091F028F08230D9F0BF
S11301F0833029F108952BB381E090E002C0880F89
S1130200991F6A95E2F7809582238BBB089528B3E2
S113021081E090E002C0880F991F6A95E2F780950B
S1130220822388BB089525B381E090E002C0880F43
S1130230991F6A95E2F78095822385BB089522B3BE
S113024081E090E002C0880F991F6A95E2F78095DB
S1130250822382BB08958FB780688FBF08950E9460
S11302602B018BB780648BBF85B7816085BF85B751
S1130270826085BF0895CF93C82F40E061E081E09C
S11302800E94BA0040E062E081E00E94BA0040E0CF
S113029063E081E00E94BA008BB39C2F907F8F7043
S11302A0892B8BBB41E063E081E00E94BA008FE9B7
S11302B09FE00197F1F700C0000040E063E081E0B7
S11302C00E94BA002BB330E1C39FC0011124922FC6
S11302D09F70892B8BBB41E063E081E00E94BA00F0
S11302E08FE99FE00197F1F700C0000040E063E070
S11302F081E00E94BA008FE19EE40197F1F700C00B
S11303000000CF91089541E061E081E00E9449003E
S113031041E062E081E00E94490041E063E081E065
S11303200E94490041E064E080E00E94490041E00D
S113033065E080E00E94490041E066E080E00E94C0
S1130340490041E067E080E00E9449002FEF81EE20
S113035094E0215080409040E1F700C0000083E326
S11303600E943B0182E30E943B0188E20E943B0120
S11303708CE00E943B0181E00E943B0186E00E94E8
S11303803B0182E00E943B010895CF93C82F41E0D6
S113039061E081E00E94BA0040E062E081E00E94F6
S11303A0BA0040E063E081E00E94BA008C2F807FB5
S11303B08BBB41E063E081E00E94BA008FE99FE0DB
S11303C00197F1F700C0000040E063E081E00E9483
S11303D0BA00C295C07FCBBB41E063E081E00E94DC
S11303E0BA008FE99FE00197F1F700C0000040E0F8
S11303F063E081E00E94BA008FE19EE40197F1F787
S113040000C00000CF9108950F931F93CF93FC0178
S11304108081882359F08F01C0E00E94C501CF5F1D
S1130420F801EC0FF11D80818111F7CFCF911F915D
S11304300F910895CF93DF9300D0CDB7DEB790E846
S1130440998390EC9A83FE01E80FF11D8181860F58
S11304500E943B010F900F90DF91CF91089581E0AE
S11304600E943B01089578940E9483010E94E30353
S11304700E94C8040E942F0160E080E00E941A02DA
S113048080E690E00E94040260E081E00E941A028B
S11304908FE690E00E9404021092520210925102E0
S11304A080E00E94FA0390E09093510280935002FE
S11304B00E94E502F1CF1F920F920FB60F92112402
S11304C0F8940E94330280E090E00E94FA030E94B4
S11304D01F0408950F931F93CF93DF9360E081E08F
S11304E00E941A028DE790E00E9404028FE890E0D7
S11304F00E94DF04C8E4D2E002E011E010924E0250
S11305000E94F5048823D1F390914F0291114FC0BA
S1130510888310934F02F2CF898300934F02EECF6A
S113052080934A0210924F0210924E0280E090E0B3
S1130530FC01E55BFD4FD081FC01E85BFD4FC08110
S1130540DC17B1F085EA90E00E94DF0460E081E00E
S11305500E941A0286EB90E00E94040287EA91E668
S11305600197F1F700C0000010924F020E946A0246
S113057080914F028F5F80934F028330C0F2DC136F
S11305801FC060E081E00E941A0287EC90E00E94A4
S113059004029FE32DE083E0915020408040E1F786
S11305A000C0000010924F020E94630209C0913003
S11305B009F4B2CF90914F02923009F09FCFB0CF9F
S11305C0DF91CF911F910F91089588ED90E00E94E3
S11305D0DF040E94F50480934E02882351F0909129
S11305E04F02E92FF0E0E55BFD4F80839F5F90931E
S11305F04F0280914F02833061F710924F020E94A4
S11306006A0208950E942F0260E080E00E941A02AC
S11306108DEE90E00E9404020E94F504C82F8133FD
S113062059F460E081E00E941A028EEF90E00E948B
S113063004020E94FF031AC0823359F460E081E08F
S11306400E941A028FE091E00E9404020E940704B3
S11306501AC0833359F460E081E00E941A0280E2F8
S113066091E00E9404020E940F0419C0C43359F49B
S113067060E081E00E941A0281E391E00E9404029A
S11306800E9417040CC0C03351F460E081E00E9462
S11306901A0282E491E00E9404020E946A0210920B
S11306A04E0287EA91E60197F1F700C00000ACCF53
S11306B00F931F93CF93DF9360E081E00E941A02AF
S11306C08DE790E00E9404028FE890E00E94DF042E
S11306D0C8E4D2E002E011E010924E020E94F50458
S11306E08823D1F390914F0291115FC088831093B6
S11306F04F02F2CF898300934F02EECF80934A02D8
S113070010924F0210924E0280E090E0FC01E55BF3
S1130710FD4FD081FC01E85BFD4FC081DC17B1F0D7
S113072085EA90E00E94DF0460E081E00E941A0202
S113073086EB90E00E94040287EA91E60197F1F7C4
S113074000C0000010924F020E94580380914F0293
S11307508F5F80934F028330C0F2DC132FC060E0C0
S113076081E00E941A0287EC90E00E9404029FE359
S11307702DE083E0915020408040E1F700C000006C
S113078060E081E00E941A0283E591E00E94040285
S11307909FE32DE083E0915020408040E1F700C0CA
S11307A0000010924F020E940203913009F4A2CF7C
S11307B090914F02923009F08FCFA0CFDF91CF916B
S11307C01F910F91089541E064E081E00E94490087
S11307D041E065E081E00E94490040E066E081E09C
S11307E00E94490041E067E081E00E94490083E5FE
S11307F08DB908958FB9779BFECF8FB1089581E0AD
S1130800809351020E94FA0380935002089582E07B
S1130810809351020E94FA0380935002089583E06A
S1130820809351020E94FA0380935002089584E059
S1130830809351020E94FA0380935002089584E643
S113084091E00E94DF0481E791E00E94DF048FE7DA
S113085091E00E94DF048AE891E00E94DF0483E9CA
S113086091E00E94DF04C12CD12CE12CF12CD0E0CA
S113087000E011E060E070E080E090E00E941A0285
S11308800E94F504C82F0E94FA0380935002C133DA
S1130890A1F4D11109C08DE991E00E94DF0481E641
S11308A00E94FA03D12FE6CF8DEA91E00E94DF0483
S11308B081E60E94FA03D02FDDCFC233A1F4F110F8
S11308C009C08EEB91E00E94DF0482E60E94FA03E5
S11308D0F12ED0CF8FEC91E00E94DF0482E60E94DB
S11308E0FA03F02EC7CFC333A1F4E11009C081EE9F
S11308F091E00E94DF0483E60E94FA03E12EBACF5E
S11309008FEE91E00E94DF0483E60E94FA03E02E5A
S1130910B1CFC433A1F4D11009C08EEF91E00E948D
S1130920DF0484E60E94FA03D12EA4CF8AE092E089
S11309300E94DF0484E60E94FA03D02E9BCFC533C5
S1130940A1F4C11009C087E192E00E94DF0485E6AA
S11309500E94FA03C12E8ECF84E292E00E94DF044B
S113096085E60E94FA03C02E85CFC03309F082CFFA
S113097082E392E00E94DF042FEF84E39CE02150A5
S113098080409040E1F700C000000E94580372CFFD
S113099041E061E083E00E94490040E060E083E0E0
S11309A00E9449008AB188618AB980B5866880BD91
S11309B089E189B908958CB95D9BFECF08950F93A1
S11309C01F93CF93FC018081882359F08F01C0E0ED
S11309D00E94DB04CF5FF801EC0FF11D80818111CF
S11309E0F7CFCF911F910F9108955F9BFECF8CB1EC
S10909F00895F894FFCF06
S11309F62077656C636F6D652073697220200073C0
S1130A066176652070617373776F726400656E74C6
S1130A166572207468652070617373203D200065DB
S1130A266E746572207468652070617373776F7273
S1130A3664203D2000206572726F722070617373AA
S1130A46776F726420007761697420317320746F44
S1130A5620656E7465720070617373776F726420BB
S1130A66636F72726563740073617665207468657A
S1130A762070617373776F7264203D2000202020FC
S1130A86202077656C636F6D6520202020007374C9
S1130A96206F66206B697420286E6963652900736C
S1130AA674206F66206B69742028676F6F64290051
S1130AB66F70656E207468652077696E206E6F7737
S1130AC600204669726520616C61726D20696E2032
S1130AD66B00204D616E75616C20636F6E74726F6E
S1130AE66C20006D6F766520746F2074656D7020C0
S1130AF6737973004C454420677265656E28312905
S1130B06004C45442079656C6C6F77283229004C7B
S1130B164544207265642833290072656C6179281E
S1130B2634290062757A7A6572283529004C454461
S1130B3620677265656E206973206F6E004C4544AC
S1130B4620677265656E206973206F6666004C4582
S1130B56442079656C6C6F77206973206F6E004C46
S1130B6645442079656C6C6F77206973206F6666DF
S1130B76004C454420726564206973206F6E004CF6
S1130B86454420726564206973206F666600726549
S1130B966C6179206973206F6E0072656C617920CF
S1130BA66973206F66660062757A7A657220697366
S1130BB6206F6E0062757A7A6572206973206F669B
S1130BC666006261636B20746F206E6F726D616C78
S10B0BD62073797374656D004E
S9030000FC
